:100000000C946D000C948A000C948A000C948A0065
:100010000C948A000C948A000C948A000C948A0038
:100020000C948A000C948A000C948A000C948A0028
:100030000C948A000C948A000C948A000C948A0018
:100040000C948A000C948A000C948A000C948A0008
:100050000C9463010C948F010C948A000C948A0018
:100060000C948A000C948A000C948A000C948A00E8
:100070000C9421020C944D020C948A000A57726968
:10008000746520796F7572206F776E20746578744F
:1000900020686572653A0D0A00537472696E6720B4
:1000A00073746F72656420696E20464C4153480A30
:1000B000005265762E2032303039303831302D41C3
:1000C0000D0A0A000D0A0A5370696E6E696E672088
:1000D000446973706C61790D0A0011241FBECFEF63
:1000E000D0E1DEBFCDBF11E0A0E0B1E0ECE4F6E08E
:1000F00002C005900D92A834B107D9F711E0A8E429
:10010000B1E001C01D92A23DB107E1F70E94B0002D
:100110000C9424030C940000882311F065B9089511
:1001200015B80895882311F062B9089512B808959A
:10013000882379F088B1807C88B98BB18F738BB9B3
:1001400098B1862F8F73892B88B98BB1607C862BF1
:1001500005C088B1807C88B98BB18F738BB9089545
:100160004F925F926F927F928F929F92AF92BF92C7
:10017000CF92DF92EF92FF920F931F93DF93CF9373
:10018000CDB7DEB7E7970FB6F894DEBF0FBECDBF91
:10019000DE011896E7E3F1E080E101900D928150D5
:1001A000E1F7DE015896E7E2F1E080E101900D927F
:1001B0008150E1F7DE019896E7E1F1E080E10190FE
:1001C0000D928150E1F78FEE90E00E94B901789492
:1001D00084EC90E00E94130281EB90E00E941302F5
:1001E00080E091E00E94060289E990E00E941302FB
:1001F00086E890E08E010F5F1F4FB8014AE050E0A3
:100200000E94DF02C8010E9406028DE00E94F001F8
:100210008CE790E00E9413028FEF84B984B181B91A
:100220008FE387B980EC8AB941E0E42EF12C2801F4
:1002300031E0632E712C88248A942CECC22E21E0AC
:10024000D22E36C0C301002E02C0880F991F0A9417
:10025000E2F7682F992011F085B901C015B8AA20DE
:1002600011F062B901C012B88B2D0E9498004B9B0F
:1002700082B884EF91E0F6013197F1F70197D9F751
:100280004A9985B888E893E1F6013197F1F701972B
:10029000D9F70F5F1F4F08301105A1F60894E11C34
:1002A000F11C88E0E816F1041CF091E0E92EF12C35
:1002B000F701EE0FFF1FE40DF51D9780A788B7A08B
:1002C00000E010E0BFCF1F920F920FB60F921124E3
:1002D0002F938F939F93EF93FF939091C000209162
:1002E000C600E0918A01EF5FEF7180918B01E81702
:1002F00011F482E008C0892F8871E0938A01F0E050
:10030000E859FE4F208380938C01FF91EF919F91DC
:100310008F912F910F900FBE0F901F9018951F92E5
:100320000F920FB60F9211248F939F93EF93FF9329
:100330009091880180918901981769F0E091890175
:10034000EF5FEF71E0938901F0E0E85BFE4F8081A1
:100350008093C60005C08091C1008F7D8093C1004D
:10036000FF91EF919F918F910F900FBE0F901F9073
:1003700018959C01109288011092890110928A01AF
:1003800010928B0197FF04C082E08093C0003F77FA
:100390003093C5002093C40088E98093C10086E0B3
:1003A0008093C200089590918A0180918B019817E3
:1003B00019F420E031E012C0E0918B01EF5FEF71A2
:1003C000E0938B01F0E0E859FE4F308120918C01E1
:1003D000922F80E0AC01430F511D9A01C90108958D
:1003E000282F909188019F5F9F71809189019817B4
:1003F000E1F3E92FF0E0E85BFE4F20839093880162
:100400008091C10080628093C1000895CF93DF93F3
:10041000EC0103C021960E94F00188818823D1F766
:10042000DF91CF910895CF93DF93EC0102C00E943A
:10043000F001FE01219684918823C9F7DF91CF91C5
:1004400008951F920F920FB60F9211242F938F933E
:100450009F93EF93FF939091C8002091CE00E0917D
:10046000CF01EF5FEF718091D001E81711F482E0C6
:1004700008C0892F8871E093CF01F0E0E355FE4F6B
:1004800020838093D101FF91EF919F918F912F91C4
:100490000F900FBE0F901F9018951F920F920FB6DE
:1004A0000F9211248F939F93EF93FF939091CD011F
:1004B0008091CE01981769F0E091CE01EF5FEF7166
:1004C000E093CE01F0E0E357FE4F80818093CE00B1
:1004D00005C08091C9008F7D8093C900FF91EF9185
:1004E0009F918F910F900FBE0F901F9018959C01B8
:1004F0001092CD011092CE011092CF011092D00136
:1005000097FF04C082E08093C8003F773093CD000E
:100510002093CC0088E98093C90086E08093CA00CC
:1005200008959091CF018091D001981719F420E09F
:1005300031E012C0E091D001EF5FEF71E093D001A4
:10054000F0E0E355FE4F30812091D101922F80E001
:10055000AC01430F511D9A01C9010895282F9091B4
:10056000CD019F5F9F718091CE019817E1F3E92F34
:10057000F0E0E357FE4F20839093CD018091C900B6
:1005800080628093C9000895CF93DF93EC0103C08C
:1005900021960E94AE0288818823D1F7DF91CF9106
:1005A0000895CF93DF93EC0102C00E94AE02FE01DA
:1005B000219684918823C9F7DF91CF910895FB019B
:1005C0009F01E8944230C4F04532B4F44A3029F433
:1005D00097FB1EF4909581959F4F642F77270E947B
:1005E0001003805D8A330CF0895D8193CB01009705
:1005F000A1F716F45DE251931082C9010C94000337
:10060000DC01FC01672F71917723E1F7329704C079
:100610007C916D9370836291AE17BF07C8F3089504
:10062000AA1BBB1B51E107C0AA1FBB1FA617B70718
:1006300010F0A61BB70B881F991F5A95A9F7809534
:0C0640009095BC01CD010895F894FFCF07
:10064C00537472696E672073746F72656420696E7F
:10065C00205352414D0A0000000000000000000130
:10066C000001000100010000000000010001000079
:10067C00000000010001000000010000000100006A
:08068C00000100000001000064
:00000001FF
